{
  "contractName": "Controlled",
  "abi": [
    {
      "constant": true,
      "inputs": [],
      "name": "controller",
      "outputs": [
        {
          "name": "",
          "type": "address"
        }
      ],
      "payable": false,
      "stateMutability": "view",
      "type": "function"
    },
    {
      "inputs": [],
      "payable": false,
      "stateMutability": "nonpayable",
      "type": "constructor"
    },
    {
      "constant": false,
      "inputs": [
        {
          "name": "_newController",
          "type": "address"
        }
      ],
      "name": "changeController",
      "outputs": [],
      "payable": false,
      "stateMutability": "nonpayable",
      "type": "function"
    }
  ],
  "bytecode": "0x6060604052341561000f57600080fd5b60008054600160a060020a033316600160a060020a03199091161790556101668061003b6000396000f30060606040526004361061004b5763ffffffff7c01000000000000000000000000000000000000000000000000000000006000350416633cebb8238114610050578063f77c47911461007e575b600080fd5b341561005b57600080fd5b61007c73ffffffffffffffffffffffffffffffffffffffff600435166100ba565b005b341561008957600080fd5b61009161011e565b60405173ffffffffffffffffffffffffffffffffffffffff909116815260200160405180910390f35b6000543373ffffffffffffffffffffffffffffffffffffffff9081169116146100e257600080fd5b6000805473ffffffffffffffffffffffffffffffffffffffff191673ffffffffffffffffffffffffffffffffffffffff92909216919091179055565b60005473ffffffffffffffffffffffffffffffffffffffff16815600a165627a7a72305820a7e8c6dd53c8f3307d23256d923fe33c1c8b1c8ece6b544d94e28e3602182b860029",
  "source": "pragma solidity ^0.4.19;\n\ncontract Controlled {\n    /// @notice The address of the controller is the only address that can call\n    ///  a function with this modifier\n    modifier onlyController { require(msg.sender == controller); _; }\n\n    address public controller;\n\n    function Controlled() public { controller = msg.sender;}\n\n    /// @notice Changes the controller of the contract\n    /// @param _newController The new controller of the contract\n    function changeController(address _newController) public onlyController {\n        controller = _newController;\n    }\n}\n",
  "sourcePath": "/Users/roderik/Development/dtx-crowdsale-contracts/contracts/external/Controlled.sol",
  "compiler": {
    "name": "solc",
    "version": "0.4.21+commit.dfe3193c.Emscripten.clang"
  },
  "schemaVersion": "2.0.0",
  "updatedAt": "2018-03-10T17:09:40.345Z"
}