{
  "contractName": "DTXToken",
  "abi": [
    {
      "constant": true,
      "inputs": [],
      "name": "name",
      "outputs": [
        {
          "name": "",
          "type": "string"
        }
      ],
      "payable": false,
      "stateMutability": "view",
      "type": "function"
    },
    {
      "constant": false,
      "inputs": [
        {
          "name": "_spender",
          "type": "address"
        },
        {
          "name": "_amount",
          "type": "uint256"
        }
      ],
      "name": "approve",
      "outputs": [
        {
          "name": "success",
          "type": "bool"
        }
      ],
      "payable": false,
      "stateMutability": "nonpayable",
      "type": "function"
    },
    {
      "constant": true,
      "inputs": [],
      "name": "creationBlock",
      "outputs": [
        {
          "name": "",
          "type": "uint256"
        }
      ],
      "payable": false,
      "stateMutability": "view",
      "type": "function"
    },
    {
      "constant": true,
      "inputs": [],
      "name": "totalSupply",
      "outputs": [
        {
          "name": "",
          "type": "uint256"
        }
      ],
      "payable": false,
      "stateMutability": "view",
      "type": "function"
    },
    {
      "constant": false,
      "inputs": [
        {
          "name": "_from",
          "type": "address"
        },
        {
          "name": "_to",
          "type": "address"
        },
        {
          "name": "_amount",
          "type": "uint256"
        }
      ],
      "name": "transferFrom",
      "outputs": [
        {
          "name": "success",
          "type": "bool"
        }
      ],
      "payable": false,
      "stateMutability": "nonpayable",
      "type": "function"
    },
    {
      "constant": true,
      "inputs": [],
      "name": "decimals",
      "outputs": [
        {
          "name": "",
          "type": "uint8"
        }
      ],
      "payable": false,
      "stateMutability": "view",
      "type": "function"
    },
    {
      "constant": false,
      "inputs": [
        {
          "name": "_newController",
          "type": "address"
        }
      ],
      "name": "changeController",
      "outputs": [],
      "payable": false,
      "stateMutability": "nonpayable",
      "type": "function"
    },
    {
      "constant": true,
      "inputs": [
        {
          "name": "_owner",
          "type": "address"
        },
        {
          "name": "_blockNumber",
          "type": "uint256"
        }
      ],
      "name": "balanceOfAt",
      "outputs": [
        {
          "name": "",
          "type": "uint256"
        }
      ],
      "payable": false,
      "stateMutability": "view",
      "type": "function"
    },
    {
      "constant": true,
      "inputs": [],
      "name": "version",
      "outputs": [
        {
          "name": "",
          "type": "string"
        }
      ],
      "payable": false,
      "stateMutability": "view",
      "type": "function"
    },
    {
      "constant": false,
      "inputs": [
        {
          "name": "_cloneTokenName",
          "type": "string"
        },
        {
          "name": "_cloneDecimalUnits",
          "type": "uint8"
        },
        {
          "name": "_cloneTokenSymbol",
          "type": "string"
        },
        {
          "name": "_snapshotBlock",
          "type": "uint256"
        },
        {
          "name": "_transfersEnabled",
          "type": "bool"
        }
      ],
      "name": "createCloneToken",
      "outputs": [
        {
          "name": "",
          "type": "address"
        }
      ],
      "payable": false,
      "stateMutability": "nonpayable",
      "type": "function"
    },
    {
      "constant": true,
      "inputs": [
        {
          "name": "_owner",
          "type": "address"
        }
      ],
      "name": "balanceOf",
      "outputs": [
        {
          "name": "balance",
          "type": "uint256"
        }
      ],
      "payable": false,
      "stateMutability": "view",
      "type": "function"
    },
    {
      "constant": true,
      "inputs": [],
      "name": "parentToken",
      "outputs": [
        {
          "name": "",
          "type": "address"
        }
      ],
      "payable": false,
      "stateMutability": "view",
      "type": "function"
    },
    {
      "constant": false,
      "inputs": [
        {
          "name": "_owner",
          "type": "address"
        },
        {
          "name": "_amount",
          "type": "uint256"
        }
      ],
      "name": "generateTokens",
      "outputs": [
        {
          "name": "",
          "type": "bool"
        }
      ],
      "payable": false,
      "stateMutability": "nonpayable",
      "type": "function"
    },
    {
      "constant": true,
      "inputs": [],
      "name": "symbol",
      "outputs": [
        {
          "name": "",
          "type": "string"
        }
      ],
      "payable": false,
      "stateMutability": "view",
      "type": "function"
    },
    {
      "constant": true,
      "inputs": [
        {
          "name": "_blockNumber",
          "type": "uint256"
        }
      ],
      "name": "totalSupplyAt",
      "outputs": [
        {
          "name": "",
          "type": "uint256"
        }
      ],
      "payable": false,
      "stateMutability": "view",
      "type": "function"
    },
    {
      "constant": false,
      "inputs": [
        {
          "name": "_to",
          "type": "address"
        },
        {
          "name": "_amount",
          "type": "uint256"
        }
      ],
      "name": "transfer",
      "outputs": [
        {
          "name": "success",
          "type": "bool"
        }
      ],
      "payable": false,
      "stateMutability": "nonpayable",
      "type": "function"
    },
    {
      "constant": true,
      "inputs": [],
      "name": "transfersEnabled",
      "outputs": [
        {
          "name": "",
          "type": "bool"
        }
      ],
      "payable": false,
      "stateMutability": "view",
      "type": "function"
    },
    {
      "constant": true,
      "inputs": [],
      "name": "parentSnapShotBlock",
      "outputs": [
        {
          "name": "",
          "type": "uint256"
        }
      ],
      "payable": false,
      "stateMutability": "view",
      "type": "function"
    },
    {
      "constant": false,
      "inputs": [
        {
          "name": "_spender",
          "type": "address"
        },
        {
          "name": "_amount",
          "type": "uint256"
        },
        {
          "name": "_extraData",
          "type": "bytes"
        }
      ],
      "name": "approveAndCall",
      "outputs": [
        {
          "name": "success",
          "type": "bool"
        }
      ],
      "payable": false,
      "stateMutability": "nonpayable",
      "type": "function"
    },
    {
      "constant": false,
      "inputs": [
        {
          "name": "_owner",
          "type": "address"
        },
        {
          "name": "_amount",
          "type": "uint256"
        }
      ],
      "name": "destroyTokens",
      "outputs": [
        {
          "name": "",
          "type": "bool"
        }
      ],
      "payable": false,
      "stateMutability": "nonpayable",
      "type": "function"
    },
    {
      "constant": true,
      "inputs": [
        {
          "name": "_owner",
          "type": "address"
        },
        {
          "name": "_spender",
          "type": "address"
        }
      ],
      "name": "allowance",
      "outputs": [
        {
          "name": "remaining",
          "type": "uint256"
        }
      ],
      "payable": false,
      "stateMutability": "view",
      "type": "function"
    },
    {
      "constant": false,
      "inputs": [
        {
          "name": "_token",
          "type": "address"
        }
      ],
      "name": "claimTokens",
      "outputs": [],
      "payable": false,
      "stateMutability": "nonpayable",
      "type": "function"
    },
    {
      "constant": true,
      "inputs": [],
      "name": "tokenFactory",
      "outputs": [
        {
          "name": "",
          "type": "address"
        }
      ],
      "payable": false,
      "stateMutability": "view",
      "type": "function"
    },
    {
      "constant": false,
      "inputs": [
        {
          "name": "_transfersEnabled",
          "type": "bool"
        }
      ],
      "name": "enableTransfers",
      "outputs": [],
      "payable": false,
      "stateMutability": "nonpayable",
      "type": "function"
    },
    {
      "constant": true,
      "inputs": [],
      "name": "controller",
      "outputs": [
        {
          "name": "",
          "type": "address"
        }
      ],
      "payable": false,
      "stateMutability": "view",
      "type": "function"
    },
    {
      "inputs": [
        {
          "name": "_tokenFactory",
          "type": "address"
        }
      ],
      "payable": false,
      "stateMutability": "nonpayable",
      "type": "constructor"
    },
    {
      "payable": true,
      "stateMutability": "payable",
      "type": "fallback"
    },
    {
      "anonymous": false,
      "inputs": [
        {
          "indexed": true,
          "name": "_token",
          "type": "address"
        },
        {
          "indexed": true,
          "name": "_controller",
          "type": "address"
        },
        {
          "indexed": false,
          "name": "_amount",
          "type": "uint256"
        }
      ],
      "name": "ClaimedTokens",
      "type": "event"
    },
    {
      "anonymous": false,
      "inputs": [
        {
          "indexed": true,
          "name": "_from",
          "type": "address"
        },
        {
          "indexed": true,
          "name": "_to",
          "type": "address"
        },
        {
          "indexed": false,
          "name": "_amount",
          "type": "uint256"
        }
      ],
      "name": "Transfer",
      "type": "event"
    },
    {
      "anonymous": false,
      "inputs": [
        {
          "indexed": true,
          "name": "_cloneToken",
          "type": "address"
        },
        {
          "indexed": false,
          "name": "_snapshotBlock",
          "type": "uint256"
        }
      ],
      "name": "NewCloneToken",
      "type": "event"
    },
    {
      "anonymous": false,
      "inputs": [
        {
          "indexed": true,
          "name": "_owner",
          "type": "address"
        },
        {
          "indexed": true,
          "name": "_spender",
          "type": "address"
        },
        {
          "indexed": false,
          "name": "_amount",
          "type": "uint256"
        }
      ],
      "name": "Approval",
      "type": "event"
    }
  ],
  "bytecode": "0x606060405260408051908101604052600781527f4d4d545f302e3200000000000000000000000000000000000000000000000000602082015260049080516200004d929160200190620001a2565b5034156200005a57600080fd5b60405160208062001a1d8339810160405280805191508190506000806040805190810160405280601381526020017f446154612065586368616e676520546f6b656e00000000000000000000000000815250601260408051908101604052600381527f4454580000000000000000000000000000000000000000000000000000000000602082015260008054600160a060020a03338116600160a060020a031990921691909117909155600b80549188166101000261010060a860020a031990921691909117905560018084805162000138929160200190620001a2565b506002805460ff191660ff851617905560038280516200015d929160200190620001a2565b5060058054600160a060020a031916600160a060020a039790971696909617909555505050600655600b805460ff191691151591909117905550504360075562000247565b828054600181600116156101000203166002900490600052602060002090601f016020900481019282601f10620001e557805160ff191683800117855562000215565b8280016001018555821562000215579182015b8281111562000215578251825591602001919060010190620001f8565b506200022392915062000227565b5090565b6200024491905b808211156200022357600081556001016200022e565b90565b6117c680620002576000396000f30060606040526004361061012f5763ffffffff60e060020a60003504166306fdde0381146101c4578063095ea7b31461024e578063176345141461028457806318160ddd146102a957806323b872dd146102bc578063313ce567146102e45780633cebb8231461030d5780634ee2cd7e1461032c57806354fd4d501461034e5780636638c0871461036157806370a082311461042557806380a5400114610444578063827f32c01461045757806395d89b4114610479578063981b24d01461048c578063a9059cbb146104a2578063bef97c87146104c4578063c5bcc4f1146104d7578063cae9ca51146104ea578063d3ce77fe1461054f578063dd62ed3e14610571578063df8de3e714610596578063e77772fe146105b5578063f41e60c5146105c8578063f77c4791146105e0575b60005461014490600160a060020a03166105f3565b151561014f57600080fd5b600054600160a060020a031663f48c3054343360405160e060020a63ffffffff8516028152600160a060020a0390911660048201526024016020604051808303818588803b151561019f57600080fd5b5af115156101ac57600080fd5b505050506040518051905015156101c257600080fd5b005b34156101cf57600080fd5b6101d7610620565b60405160208082528190810183818151815260200191508051906020019080838360005b838110156102135780820151838201526020016101fb565b50505050905090810190601f1680156102405780820380516001836020036101000a031916815260200191505b509250505060405180910390f35b341561025957600080fd5b610270600160a060020a03600435166024356106be565b604051901515815260200160405180910390f35b341561028f57600080fd5b610297610816565b60405190815260200160405180910390f35b34156102b457600080fd5b61029761081c565b34156102c757600080fd5b610270600160a060020a036004358116906024351660443561082d565b34156102ef57600080fd5b6102f76108cf565b60405160ff909116815260200160405180910390f35b341561031857600080fd5b6101c2600160a060020a03600435166108d8565b341561033757600080fd5b610297600160a060020a0360043516602435610922565b341561035957600080fd5b6101d7610a4b565b341561036c57600080fd5b61040960046024813581810190830135806020601f8201819004810201604051908101604052818152929190602084018383808284378201915050505050509190803560ff1690602001909190803590602001908201803590602001908080601f016020809104026020016040519081016040528181529291906020840183838082843750949650508435946020013515159350610ab692505050565b604051600160a060020a03909116815260200160405180910390f35b341561043057600080fd5b610297600160a060020a0360043516610ccf565b341561044f57600080fd5b610409610ce3565b341561046257600080fd5b610270600160a060020a0360043516602435610cf2565b341561048457600080fd5b6101d7610dc2565b341561049757600080fd5b610297600435610e2d565b34156104ad57600080fd5b610270600160a060020a0360043516602435610f09565b34156104cf57600080fd5b610270610f28565b34156104e257600080fd5b610297610f31565b34156104f557600080fd5b61027060048035600160a060020a03169060248035919060649060443590810190830135806020601f82018190048102016040519081016040528181529291906020840183838082843750949650610f3795505050505050565b341561055a57600080fd5b610270600160a060020a036004351660243561104e565b341561057c57600080fd5b610297600160a060020a0360043581169060243516611118565b34156105a157600080fd5b6101c2600160a060020a0360043516611143565b34156105c057600080fd5b6104096112d4565b34156105d357600080fd5b6101c260043515156112e8565b34156105eb57600080fd5b610409611316565b600080600160a060020a038316151561060f576000915061061a565b823b90506000811191505b50919050565b60018054600181600116156101000203166002900480601f0160208091040260200160405190810160405280929190818152602001828054600181600116156101000203166002900480156106b65780601f1061068b576101008083540402835291602001916106b6565b820191906000526020600020905b81548152906001019060200180831161069957829003601f168201915b505050505081565b600b5460009060ff1615156106d257600080fd5b8115806107025750600160a060020a03338116600090815260096020908152604080832093871683529290522054155b151561070d57600080fd5b60005461072290600160a060020a03166105f3565b156107ac57600054600160a060020a031663da682aeb33858560405160e060020a63ffffffff8616028152600160a060020a0393841660048201529190921660248201526044810191909152606401602060405180830381600087803b151561078a57600080fd5b5af1151561079757600080fd5b5050506040518051905015156107ac57600080fd5b600160a060020a03338116600081815260096020908152604080832094881680845294909152908190208590557f8c5be1e5ebec7d5bd14f71427d1e84f3dd0314c0f7b2291e5b200ac8c7c3b9259085905190815260200160405180910390a35060015b92915050565b60075481565b600061082743610e2d565b90505b90565b6000805433600160a060020a039081169116146108ba57600b5460ff16151561085557600080fd5b600160a060020a03808516600090815260096020908152604080832033909416835292905220548290101561088c575060006108c8565b600160a060020a03808516600090815260096020908152604080832033909416835292905220805483900390555b6108c5848484611325565b90505b9392505050565b60025460ff1681565b60005433600160a060020a039081169116146108f357600080fd5b6000805473ffffffffffffffffffffffffffffffffffffffff1916600160a060020a0392909216919091179055565b600160a060020a038216600090815260086020526040812054158061097e5750600160a060020a03831660009081526008602052604081208054849290811061096757fe5b6000918252602090912001546001608060020a0316115b15610a2257600554600160a060020a031615610a1a57600554600654600160a060020a0390911690634ee2cd7e9085906109b99086906114f2565b60405160e060020a63ffffffff8516028152600160a060020a0390921660048301526024820152604401602060405180830381600087803b15156109fc57600080fd5b5af11515610a0957600080fd5b505050604051805190509050610810565b506000610810565b600160a060020a0383166000908152600860205260409020610a449083611508565b9050610810565b60048054600181600116156101000203166002900480601f0160208091040260200160405190810160405280929190818152602001828054600181600116156101000203166002900480156106b65780601f1061068b576101008083540402835291602001916106b6565b600080831515610ac4574393505b600b546101009004600160a060020a0316635b7b72c130868a8a8a8960405160e060020a63ffffffff8916028152600160a060020a038716600482019081526024820187905260ff8516606483015282151560a483015260c0604483019081529091608481019060c40187818151815260200191508051906020019080838360005b83811015610b5e578082015183820152602001610b46565b50505050905090810190601f168015610b8b5780820380516001836020036101000a031916815260200191505b50838103825285818151815260200191508051906020019080838360005b83811015610bc1578082015183820152602001610ba9565b50505050905090810190601f168015610bee5780820380516001836020036101000a031916815260200191505b5098505050505050505050602060405180830381600087803b1515610c1257600080fd5b5af11515610c1f57600080fd5b5050506040518051915050600160a060020a038116633cebb8233360405160e060020a63ffffffff8416028152600160a060020a039091166004820152602401600060405180830381600087803b1515610c7857600080fd5b5af11515610c8557600080fd5b50505080600160a060020a03167f086c875b377f900b07ce03575813022f05dd10ed7640b5282cf6d3c3fc352ade8560405190815260200160405180910390a29695505050505050565b6000610cdb8243610922565b90505b919050565b600554600160a060020a031681565b600080548190819033600160a060020a03908116911614610d1257600080fd5b610d1a61081c565b915083820182901015610d2c57600080fd5b610d3585610ccf565b905083810181901015610d4757600080fd5b610d54600a858401611667565b600160a060020a0385166000908152600860205260409020610d7890828601611667565b84600160a060020a031660007fddf252ad1be2c89b69c2b068fc378daa952ba7f163c4a11628f55a4df523b3ef8660405190815260200160405180910390a3506001949350505050565b60038054600181600116156101000203166002900480601f0160208091040260200160405190810160405280929190818152602001828054600181600116156101000203166002900480156106b65780601f1061068b576101008083540402835291602001916106b6565b600a546000901580610e62575081600a6000815481101515610e4b57fe5b6000918252602090912001546001608060020a0316115b15610ef757600554600160a060020a031615610eef57600554600654600160a060020a039091169063981b24d090610e9b9085906114f2565b60405160e060020a63ffffffff84160281526004810191909152602401602060405180830381600087803b1515610ed157600080fd5b5af11515610ede57600080fd5b505050604051805190509050610cde565b506000610cde565b610f02600a83611508565b9050610cde565b600b5460009060ff161515610f1d57600080fd5b6108c8338484611325565b600b5460ff1681565b60065481565b6000610f4384846106be565b1515610f4e57600080fd5b83600160a060020a0316638f4ffcb1338530866040518563ffffffff1660e060020a0281526004018085600160a060020a0316600160a060020a0316815260200184815260200183600160a060020a0316600160a060020a0316815260200180602001828103825283818151815260200191508051906020019080838360005b83811015610fe6578082015183820152602001610fce565b50505050905090810190601f1680156110135780820380516001836020036101000a031916815260200191505b5095505050505050600060405180830381600087803b151561103457600080fd5b5af1151561104157600080fd5b5060019695505050505050565b600080548190819033600160a060020a0390811691161461106e57600080fd5b61107661081c565b91508382101561108557600080fd5b61108e85610ccf565b90508381101561109d57600080fd5b6110aa600a858403611667565b600160a060020a03851660009081526008602052604090206110ce90858303611667565b600085600160a060020a03167fddf252ad1be2c89b69c2b068fc378daa952ba7f163c4a11628f55a4df523b3ef8660405190815260200160405180910390a3506001949350505050565b600160a060020a03918216600090815260096020908152604080832093909416825291909152205490565b60008054819033600160a060020a0390811691161461116157600080fd5b600160a060020a03831615156111af57600054600160a060020a039081169030163180156108fc0290604051600060405180830381858888f1935050505015156111aa57600080fd5b6112cf565b82915081600160a060020a03166370a082313060405160e060020a63ffffffff8416028152600160a060020a039091166004820152602401602060405180830381600087803b151561120057600080fd5b5af1151561120d57600080fd5b5050506040518051600054909250600160a060020a03808516925063a9059cbb91168360405160e060020a63ffffffff8516028152600160a060020a0390921660048301526024820152604401602060405180830381600087803b151561127357600080fd5b5af1151561128057600080fd5b50505060405180515050600054600160a060020a039081169084167ff931edb47c50b4b4104c187b5814a9aef5f709e17e2ecf9617e860cacade929c8360405190815260200160405180910390a35b505050565b600b546101009004600160a060020a031681565b60005433600160a060020a0390811691161461130357600080fd5b600b805460ff1916911515919091179055565b600054600160a060020a031681565b6000808083151561133957600192506114e9565b60065443901061134857600080fd5b600160a060020a03851615801590611372575030600160a060020a031685600160a060020a031614155b151561137d57600080fd5b6113878643610922565b91508382101561139a57600092506114e9565b6000546113af90600160a060020a03166105f3565b1561143957600054600160a060020a0316634a39314987878760405160e060020a63ffffffff8616028152600160a060020a0393841660048201529190921660248201526044810191909152606401602060405180830381600087803b151561141757600080fd5b5af1151561142457600080fd5b50505060405180519050151561143957600080fd5b600160a060020a038616600090815260086020526040902061145d90858403611667565b6114678543610922565b90508381018190101561147957600080fd5b600160a060020a038516600090815260086020526040902061149d90828601611667565b84600160a060020a031686600160a060020a03167fddf252ad1be2c89b69c2b068fc378daa952ba7f163c4a11628f55a4df523b3ef8660405190815260200160405180910390a3600192505b50509392505050565b600081831061150157816108c8565b5090919050565b600080600080858054905060001415611524576000935061165e565b85548690600019810190811061153657fe5b6000918252602090912001546001608060020a031685106115935785548690600019810190811061156357fe5b60009182526020909120015470010000000000000000000000000000000090046001608060020a0316935061165e565b8560008154811015156115a257fe5b6000918252602090912001546001608060020a03168510156115c7576000935061165e565b8554600093506000190191505b828211156116245760026001838501010490508486828154811015156115f657fe5b6000918252602090912001546001608060020a0316116116185780925061161f565b6001810391505b6115d4565b858381548110151561163257fe5b60009182526020909120015470010000000000000000000000000000000090046001608060020a031693505b50505092915050565b8154600090819015806116a05750835443908590600019810190811061168957fe5b6000918252602090912001546001608060020a0316105b1561171257835484906116b6826001830161175d565b815481106116c057fe5b600091825260209091200180546001608060020a03858116700100000000000000000000000000000000024382166fffffffffffffffffffffffffffffffff1990931692909217161781559150611757565b83548490600019810190811061172457fe5b600091825260209091200180546001608060020a0380861670010000000000000000000000000000000002911617815590505b50505050565b8154818355818115116112cf576000838152602090206112cf91810190830161082a91905b808211156117965760008155600101611782565b50905600a165627a7a72305820fdff897542e008ff15086b7dd4c48241bb910dc3cdb78efe590a1026587aea700029",
  "source": "pragma solidity ^0.4.19;\n\nimport \"./external/MiniMeToken.sol\";\n\n\ncontract DTXToken is MiniMeToken {\n\n  function DTXToken(address _tokenFactory) public MiniMeToken (\n    _tokenFactory,\n    0x0,                    // no parent token\n    0,                      // no snapshot block number from parent\n    \"DaTa eXchange Token\", // Token name\n    18,                     // Decimals\n    \"DTX\",                 // Symbol\n    true                   // Enable transfers\n    )\n  {}\n\n}\n",
  "sourcePath": "/Users/roderik/Development/dtx-crowdsale-contracts/contracts/DTXToken.sol",
  "compiler": {
    "name": "solc",
    "version": "0.4.21+commit.dfe3193c.Emscripten.clang"
  },
  "schemaVersion": "2.0.0",
  "updatedAt": "2018-03-19T08:41:21.368Z"
}