{
  "contractName": "MultiSigWalletWithDailyLimit",
  "abi": [
    {
      "constant": true,
      "inputs": [
        {
          "name": "",
          "type": "uint256"
        }
      ],
      "name": "owners",
      "outputs": [
        {
          "name": "",
          "type": "address"
        }
      ],
      "payable": false,
      "stateMutability": "view",
      "type": "function"
    },
    {
      "constant": false,
      "inputs": [
        {
          "name": "owner",
          "type": "address"
        }
      ],
      "name": "removeOwner",
      "outputs": [],
      "payable": false,
      "stateMutability": "nonpayable",
      "type": "function"
    },
    {
      "constant": false,
      "inputs": [
        {
          "name": "transactionId",
          "type": "uint256"
        }
      ],
      "name": "revokeConfirmation",
      "outputs": [],
      "payable": false,
      "stateMutability": "nonpayable",
      "type": "function"
    },
    {
      "constant": true,
      "inputs": [
        {
          "name": "",
          "type": "address"
        }
      ],
      "name": "isOwner",
      "outputs": [
        {
          "name": "",
          "type": "bool"
        }
      ],
      "payable": false,
      "stateMutability": "view",
      "type": "function"
    },
    {
      "constant": true,
      "inputs": [
        {
          "name": "",
          "type": "uint256"
        },
        {
          "name": "",
          "type": "address"
        }
      ],
      "name": "confirmations",
      "outputs": [
        {
          "name": "",
          "type": "bool"
        }
      ],
      "payable": false,
      "stateMutability": "view",
      "type": "function"
    },
    {
      "constant": true,
      "inputs": [
        {
          "name": "pending",
          "type": "bool"
        },
        {
          "name": "executed",
          "type": "bool"
        }
      ],
      "name": "getTransactionCount",
      "outputs": [
        {
          "name": "count",
          "type": "uint256"
        }
      ],
      "payable": false,
      "stateMutability": "view",
      "type": "function"
    },
    {
      "constant": true,
      "inputs": [],
      "name": "dailyLimit",
      "outputs": [
        {
          "name": "",
          "type": "uint256"
        }
      ],
      "payable": false,
      "stateMutability": "view",
      "type": "function"
    },
    {
      "constant": true,
      "inputs": [],
      "name": "lastDay",
      "outputs": [
        {
          "name": "",
          "type": "uint256"
        }
      ],
      "payable": false,
      "stateMutability": "view",
      "type": "function"
    },
    {
      "constant": false,
      "inputs": [
        {
          "name": "owner",
          "type": "address"
        }
      ],
      "name": "addOwner",
      "outputs": [],
      "payable": false,
      "stateMutability": "nonpayable",
      "type": "function"
    },
    {
      "constant": true,
      "inputs": [
        {
          "name": "transactionId",
          "type": "uint256"
        }
      ],
      "name": "isConfirmed",
      "outputs": [
        {
          "name": "",
          "type": "bool"
        }
      ],
      "payable": false,
      "stateMutability": "view",
      "type": "function"
    },
    {
      "constant": true,
      "inputs": [
        {
          "name": "transactionId",
          "type": "uint256"
        }
      ],
      "name": "getConfirmationCount",
      "outputs": [
        {
          "name": "count",
          "type": "uint256"
        }
      ],
      "payable": false,
      "stateMutability": "view",
      "type": "function"
    },
    {
      "constant": true,
      "inputs": [
        {
          "name": "",
          "type": "uint256"
        }
      ],
      "name": "transactions",
      "outputs": [
        {
          "name": "destination",
          "type": "address"
        },
        {
          "name": "value",
          "type": "uint256"
        },
        {
          "name": "data",
          "type": "bytes"
        },
        {
          "name": "executed",
          "type": "bool"
        }
      ],
      "payable": false,
      "stateMutability": "view",
      "type": "function"
    },
    {
      "constant": true,
      "inputs": [],
      "name": "getOwners",
      "outputs": [
        {
          "name": "",
          "type": "address[]"
        }
      ],
      "payable": false,
      "stateMutability": "view",
      "type": "function"
    },
    {
      "constant": true,
      "inputs": [
        {
          "name": "from",
          "type": "uint256"
        },
        {
          "name": "to",
          "type": "uint256"
        },
        {
          "name": "pending",
          "type": "bool"
        },
        {
          "name": "executed",
          "type": "bool"
        }
      ],
      "name": "getTransactionIds",
      "outputs": [
        {
          "name": "_transactionIds",
          "type": "uint256[]"
        }
      ],
      "payable": false,
      "stateMutability": "view",
      "type": "function"
    },
    {
      "constant": true,
      "inputs": [
        {
          "name": "transactionId",
          "type": "uint256"
        }
      ],
      "name": "getConfirmations",
      "outputs": [
        {
          "name": "_confirmations",
          "type": "address[]"
        }
      ],
      "payable": false,
      "stateMutability": "view",
      "type": "function"
    },
    {
      "constant": true,
      "inputs": [],
      "name": "transactionCount",
      "outputs": [
        {
          "name": "",
          "type": "uint256"
        }
      ],
      "payable": false,
      "stateMutability": "view",
      "type": "function"
    },
    {
      "constant": false,
      "inputs": [
        {
          "name": "_required",
          "type": "uint256"
        }
      ],
      "name": "changeRequirement",
      "outputs": [],
      "payable": false,
      "stateMutability": "nonpayable",
      "type": "function"
    },
    {
      "constant": false,
      "inputs": [
        {
          "name": "transactionId",
          "type": "uint256"
        }
      ],
      "name": "confirmTransaction",
      "outputs": [],
      "payable": false,
      "stateMutability": "nonpayable",
      "type": "function"
    },
    {
      "constant": false,
      "inputs": [
        {
          "name": "destination",
          "type": "address"
        },
        {
          "name": "value",
          "type": "uint256"
        },
        {
          "name": "data",
          "type": "bytes"
        }
      ],
      "name": "submitTransaction",
      "outputs": [
        {
          "name": "transactionId",
          "type": "uint256"
        }
      ],
      "payable": false,
      "stateMutability": "nonpayable",
      "type": "function"
    },
    {
      "constant": true,
      "inputs": [],
      "name": "MAX_OWNER_COUNT",
      "outputs": [
        {
          "name": "",
          "type": "uint256"
        }
      ],
      "payable": false,
      "stateMutability": "view",
      "type": "function"
    },
    {
      "constant": true,
      "inputs": [],
      "name": "required",
      "outputs": [
        {
          "name": "",
          "type": "uint256"
        }
      ],
      "payable": false,
      "stateMutability": "view",
      "type": "function"
    },
    {
      "constant": false,
      "inputs": [
        {
          "name": "owner",
          "type": "address"
        },
        {
          "name": "newOwner",
          "type": "address"
        }
      ],
      "name": "replaceOwner",
      "outputs": [],
      "payable": false,
      "stateMutability": "nonpayable",
      "type": "function"
    },
    {
      "constant": true,
      "inputs": [],
      "name": "spentToday",
      "outputs": [
        {
          "name": "",
          "type": "uint256"
        }
      ],
      "payable": false,
      "stateMutability": "view",
      "type": "function"
    },
    {
      "inputs": [
        {
          "name": "_owners",
          "type": "address[]"
        },
        {
          "name": "_required",
          "type": "uint256"
        },
        {
          "name": "_dailyLimit",
          "type": "uint256"
        }
      ],
      "payable": false,
      "stateMutability": "nonpayable",
      "type": "constructor"
    },
    {
      "payable": true,
      "stateMutability": "payable",
      "type": "fallback"
    },
    {
      "anonymous": false,
      "inputs": [
        {
          "indexed": false,
          "name": "dailyLimit",
          "type": "uint256"
        }
      ],
      "name": "DailyLimitChange",
      "type": "event"
    },
    {
      "anonymous": false,
      "inputs": [
        {
          "indexed": true,
          "name": "sender",
          "type": "address"
        },
        {
          "indexed": true,
          "name": "transactionId",
          "type": "uint256"
        }
      ],
      "name": "Confirmation",
      "type": "event"
    },
    {
      "anonymous": false,
      "inputs": [
        {
          "indexed": true,
          "name": "sender",
          "type": "address"
        },
        {
          "indexed": true,
          "name": "transactionId",
          "type": "uint256"
        }
      ],
      "name": "Revocation",
      "type": "event"
    },
    {
      "anonymous": false,
      "inputs": [
        {
          "indexed": true,
          "name": "transactionId",
          "type": "uint256"
        }
      ],
      "name": "Submission",
      "type": "event"
    },
    {
      "anonymous": false,
      "inputs": [
        {
          "indexed": true,
          "name": "transactionId",
          "type": "uint256"
        }
      ],
      "name": "Execution",
      "type": "event"
    },
    {
      "anonymous": false,
      "inputs": [
        {
          "indexed": true,
          "name": "transactionId",
          "type": "uint256"
        }
      ],
      "name": "ExecutionFailure",
      "type": "event"
    },
    {
      "anonymous": false,
      "inputs": [
        {
          "indexed": true,
          "name": "sender",
          "type": "address"
        },
        {
          "indexed": false,
          "name": "value",
          "type": "uint256"
        }
      ],
      "name": "Deposit",
      "type": "event"
    },
    {
      "anonymous": false,
      "inputs": [
        {
          "indexed": true,
          "name": "owner",
          "type": "address"
        }
      ],
      "name": "OwnerAddition",
      "type": "event"
    },
    {
      "anonymous": false,
      "inputs": [
        {
          "indexed": true,
          "name": "owner",
          "type": "address"
        }
      ],
      "name": "OwnerRemoval",
      "type": "event"
    },
    {
      "anonymous": false,
      "inputs": [
        {
          "indexed": false,
          "name": "required",
          "type": "uint256"
        }
      ],
      "name": "RequirementChange",
      "type": "event"
    },
    {
      "constant": false,
      "inputs": [
        {
          "name": "_dailyLimit",
          "type": "uint256"
        }
      ],
      "name": "changeDailyLimit",
      "outputs": [],
      "payable": false,
      "stateMutability": "nonpayable",
      "type": "function"
    },
    {
      "constant": false,
      "inputs": [
        {
          "name": "transactionId",
          "type": "uint256"
        }
      ],
      "name": "executeTransaction",
      "outputs": [],
      "payable": false,
      "stateMutability": "nonpayable",
      "type": "function"
    },
    {
      "constant": true,
      "inputs": [],
      "name": "calcMaxWithdraw",
      "outputs": [
        {
          "name": "",
          "type": "uint256"
        }
      ],
      "payable": false,
      "stateMutability": "view",
      "type": "function"
    }
  ],
  "bytecode": "0x606060405234156200001057600080fd5b604051620018ae380380620018ae8339810160405280805182019190602001805191906020018051915083905082600082518260328211158015620000555750818111155b80156200006157508015155b80156200006d57508115155b15156200007957600080fd5b600092505b84518310156200014a57600260008685815181106200009957fe5b90602001906020020151600160a060020a0316815260208101919091526040016000205460ff16158015620000ec5750848381518110620000d657fe5b90602001906020020151600160a060020a031615155b1515620000f857600080fd5b6001600260008786815181106200010b57fe5b90602001906020020151600160a060020a031681526020810191909152604001600020805460ff1916911515919091179055600192909201916200007e565b60038580516200015f92916020019062000176565b5050506004919091555050600655506200020c9050565b828054828255906000526020600020908101928215620001d0579160200282015b82811115620001d05782518254600160a060020a031916600160a060020a03919091161782556020929092019160019091019062000197565b50620001de929150620001e2565b5090565b6200020991905b80821115620001de578054600160a060020a0319168155600101620001e9565b90565b611692806200021c6000396000f3006060604052600436106101535763ffffffff7c0100000000000000000000000000000000000000000000000000000000600035041663025e7c27811461019c578063173825d9146101ce57806320ea8d86146101ed5780632f54bf6e146102035780633411c81c146102365780634bc9fdc214610258578063547415251461027d57806367eeba0c1461029a5780636b0c932d146102ad5780637065cb48146102c0578063784547a7146102df5780638b51d13f146102f55780639ace38c21461030b578063a0e67e2b146103ca578063a8abe69a14610430578063b5dc40c314610453578063b77bf60014610469578063ba51a6df1461047c578063c01a8c8414610492578063c6427474146104a8578063cea086211461050d578063d74f8edd14610523578063dc8452cd14610536578063e20056e614610549578063ee22610b1461056e578063f059cf2b14610584575b600034111561019a5733600160a060020a03167fe1fffcc4923d04b559f4d29a8bfc6cda04eb5b0d3c460751c2402c5c5cc9109c3460405190815260200160405180910390a25b005b34156101a757600080fd5b6101b2600435610597565b604051600160a060020a03909116815260200160405180910390f35b34156101d957600080fd5b61019a600160a060020a03600435166105bf565b34156101f857600080fd5b61019a600435610754565b341561020e57600080fd5b610222600160a060020a0360043516610832565b604051901515815260200160405180910390f35b341561024157600080fd5b610222600435600160a060020a0360243516610847565b341561026357600080fd5b61026b610867565b60405190815260200160405180910390f35b341561028857600080fd5b61026b600435151560243515156108a1565b34156102a557600080fd5b61026b61090d565b34156102b857600080fd5b61026b610913565b34156102cb57600080fd5b61019a600160a060020a0360043516610919565b34156102ea57600080fd5b610222600435610a55565b341561030057600080fd5b61026b600435610ad9565b341561031657600080fd5b610321600435610b48565b604051600160a060020a03851681526020810184905281151560608201526080604082018181528454600260001961010060018416150201909116049183018290529060a0830190859080156103b85780601f1061038d576101008083540402835291602001916103b8565b820191906000526020600020905b81548152906001019060200180831161039b57829003601f168201915b50509550505050505060405180910390f35b34156103d557600080fd5b6103dd610b7c565b60405160208082528190810183818151815260200191508051906020019060200280838360005b8381101561041c578082015183820152602001610404565b505050509050019250505060405180910390f35b341561043b57600080fd5b6103dd60043560243560443515156064351515610be4565b341561045e57600080fd5b6103dd600435610d0c565b341561047457600080fd5b61026b610e70565b341561048757600080fd5b61019a600435610e76565b341561049d57600080fd5b61019a600435610f09565b34156104b357600080fd5b61026b60048035600160a060020a03169060248035919060649060443590810190830135806020601f82018190048102016040519081016040528181529291906020840183838082843750949650610ff795505050505050565b341561051857600080fd5b61019a600435611016565b341561052e57600080fd5b61026b611071565b341561054157600080fd5b61026b611076565b341561055457600080fd5b61019a600160a060020a036004358116906024351661107c565b341561057957600080fd5b61019a60043561122a565b341561058f57600080fd5b61026b611448565b60038054829081106105a557fe5b600091825260209091200154600160a060020a0316905081565b600030600160a060020a031633600160a060020a03161415156105e157600080fd5b600160a060020a038216600090815260026020526040902054829060ff16151561060a57600080fd5b600160a060020a0383166000908152600260205260408120805460ff1916905591505b600354600019018210156106ed5782600160a060020a031660038381548110151561065457fe5b600091825260209091200154600160a060020a031614156106e25760038054600019810190811061068157fe5b60009182526020909120015460038054600160a060020a0390921691849081106106a757fe5b6000918252602090912001805473ffffffffffffffffffffffffffffffffffffffff1916600160a060020a03929092169190911790556106ed565b60019091019061062d565b6003805460001901906107009082611593565b5060035460045411156107195760035461071990610e76565b82600160a060020a03167f8001553a916ef2f495d26a907cc54d96ed840d7bda71e73194bf5a9df7a76b9060405160405180910390a2505050565b33600160a060020a03811660009081526002602052604090205460ff16151561077c57600080fd5b600082815260016020908152604080832033600160a060020a038116855292529091205483919060ff1615156107b157600080fd5b600084815260208190526040902060030154849060ff16156107d257600080fd5b6000858152600160209081526040808320600160a060020a033316808552925291829020805460ff1916905586917ff6a317157440607f36269043eb55f1287a5a19ba2216afeab88cd46cbcfb88e9905160405180910390a35050505050565b60026020526000908152604090205460ff1681565b600160209081526000928352604080842090915290825290205460ff1681565b60006007546201518001421115610881575060065461089e565b60085460065410156108955750600061089e565b50600854600654035b90565b6000805b600554811015610906578380156108ce575060008181526020819052604090206003015460ff16155b806108f257508280156108f2575060008181526020819052604090206003015460ff165b156108fe576001820191505b6001016108a5565b5092915050565b60065481565b60075481565b30600160a060020a031633600160a060020a031614151561093957600080fd5b600160a060020a038116600090815260026020526040902054819060ff161561096157600080fd5b81600160a060020a038116151561097757600080fd5b600380549050600101600454603282111580156109945750818111155b801561099f57508015155b80156109aa57508115155b15156109b557600080fd5b600160a060020a0385166000908152600260205260409020805460ff1916600190811790915560038054909181016109ed8382611593565b506000918252602090912001805473ffffffffffffffffffffffffffffffffffffffff1916600160a060020a0387169081179091557ff39e6e1eb0edcf53c221607b54b00cd28f3196fed0a24994dc308b8f611b682d60405160405180910390a25050505050565b600080805b600354811015610ad25760008481526001602052604081206003805491929184908110610a8357fe5b6000918252602080832090910154600160a060020a0316835282019290925260400190205460ff1615610ab7576001820191505b600454821415610aca5760019250610ad2565b600101610a5a565b5050919050565b6000805b600354811015610b425760008381526001602052604081206003805491929184908110610b0657fe5b6000918252602080832090910154600160a060020a0316835282019290925260400190205460ff1615610b3a576001820191505b600101610add565b50919050565b6000602081905290815260409020805460018201546003830154600160a060020a0390921692909160029091019060ff1684565b610b846115bc565b6003805480602002602001604051908101604052809291908181526020018280548015610bda57602002820191906000526020600020905b8154600160a060020a03168152600190910190602001808311610bbc575b5050505050905090565b610bec6115bc565b610bf46115bc565b600080600554604051805910610c075750595b9080825280602002602001820160405250925060009150600090505b600554811015610c9c57858015610c4c575060008181526020819052604090206003015460ff16155b80610c705750848015610c70575060008181526020819052604090206003015460ff165b15610c945780838381518110610c8257fe5b60209081029091010152600191909101905b600101610c23565b878703604051805910610cac5750595b908082528060200260200182016040525093508790505b86811015610d0157828181518110610cd757fe5b906020019060200201518489830381518110610cef57fe5b60209081029091010152600101610cc3565b505050949350505050565b610d146115bc565b610d1c6115bc565b6003546000908190604051805910610d315750595b9080825280602002602001820160405250925060009150600090505b600354811015610df95760008581526001602052604081206003805491929184908110610d7657fe5b6000918252602080832090910154600160a060020a0316835282019290925260400190205460ff1615610df1576003805482908110610db157fe5b600091825260209091200154600160a060020a0316838381518110610dd257fe5b600160a060020a03909216602092830290910190910152600191909101905b600101610d4d565b81604051805910610e075750595b90808252806020026020018201604052509350600090505b81811015610e6857828181518110610e3357fe5b90602001906020020151848281518110610e4957fe5b600160a060020a03909216602092830290910190910152600101610e1f565b505050919050565b60055481565b30600160a060020a031633600160a060020a0316141515610e9657600080fd5b6003548160328211801590610eab5750818111155b8015610eb657508015155b8015610ec157508115155b1515610ecc57600080fd5b60048390557fa3f1ee9126a074d9326c682f561767f710e927faa811f7a99829d49dc421797a8360405190815260200160405180910390a1505050565b33600160a060020a03811660009081526002602052604090205460ff161515610f3157600080fd5b6000828152602081905260409020548290600160a060020a03161515610f5657600080fd5b600083815260016020908152604080832033600160a060020a038116855292529091205484919060ff1615610f8a57600080fd5b6000858152600160208181526040808420600160a060020a033316808652925292839020805460ff191690921790915586917f4a504a94899432a9846e1aa406dceb1bcfd538bb839071d49d1e5e23f5be30ef905160405180910390a3610ff08561122a565b5050505050565b600061100484848461144e565b905061100f81610f09565b9392505050565b30600160a060020a031633600160a060020a031614151561103657600080fd5b60068190557fc71bdc6afaf9b1aa90a7078191d4fc1adf3bf680fca3183697df6b0dc226bca28160405190815260200160405180910390a150565b603281565b60045481565b600030600160a060020a031633600160a060020a031614151561109e57600080fd5b600160a060020a038316600090815260026020526040902054839060ff1615156110c757600080fd5b600160a060020a038316600090815260026020526040902054839060ff16156110ef57600080fd5b600092505b6003548310156111885784600160a060020a031660038481548110151561111757fe5b600091825260209091200154600160a060020a0316141561117d578360038481548110151561114257fe5b6000918252602090912001805473ffffffffffffffffffffffffffffffffffffffff1916600160a060020a0392909216919091179055611188565b6001909201916110f4565b600160a060020a03808616600081815260026020526040808220805460ff199081169091559388168252908190208054909316600117909255907f8001553a916ef2f495d26a907cc54d96ed840d7bda71e73194bf5a9df7a76b90905160405180910390a283600160a060020a03167ff39e6e1eb0edcf53c221607b54b00cd28f3196fed0a24994dc308b8f611b682d60405160405180910390a25050505050565b33600160a060020a0381166000908152600260205260408120549091829160ff16151561125657600080fd5b600084815260016020908152604080832033600160a060020a038116855292529091205485919060ff16151561128b57600080fd5b600086815260208190526040902060030154869060ff16156112ac57600080fd5b600087815260208190526040902095506112c587610a55565b945084806112f857506002808701546000196101006001831615020116041580156112f857506112f8866001015461154b565b1561143f5760038601805460ff191660011790558415156113225760018601546008805490910190555b85546001870154600160a060020a039091169060028801604051808280546001816001161561010002031660029004801561139e5780601f106113735761010080835404028352916020019161139e565b820191906000526020600020905b81548152906001019060200180831161138157829003601f168201915b505091505060006040518083038185876187965a03f192505050156113ef57867f33e13ecb54c3076d8e8bb8c2881800a4d972b792045ffae98fdf46df365fed7560405160405180910390a261143f565b867f526441bb6c1aba3c9a4a6ca1d6545da9c2333c8c48343ef398eb858d72b7923660405160405180910390a260038601805460ff1916905584151561143f576001860154600880549190910390555b50505050505050565b60085481565b600083600160a060020a038116151561146657600080fd5b600554915060806040519081016040908152600160a060020a0387168252602080830187905281830186905260006060840181905285815290819052208151815473ffffffffffffffffffffffffffffffffffffffff1916600160a060020a0391909116178155602082015181600101556040820151816002019080516114f19291602001906115ce565b506060820151600391909101805460ff191691151591909117905550600580546001019055817fc0ba8fe4b176c1714197d43b9cc6bcf797a4a7461c5fe8d0ef6e184ae7601e5160405160405180910390a2509392505050565b60006007546201518001421115611566574260075560006008555b6006548260085401118061157d5750600854828101105b1561158a5750600061158e565b5060015b919050565b8154818355818115116115b7576000838152602090206115b791810190830161164c565b505050565b60206040519081016040526000815290565b828054600181600116156101000203166002900490600052602060002090601f016020900481019282601f1061160f57805160ff191683800117855561163c565b8280016001018555821561163c579182015b8281111561163c578251825591602001919060010190611621565b5061164892915061164c565b5090565b61089e91905b8082111561164857600081556001016116525600a165627a7a72305820373986f01dc0f1563bf51ca4a13f9765ba8775fe51a65d0fda6ba03831d329870029",
  "source": "pragma solidity ^0.4.19;\nimport \"./MultiSigWallet.sol\";\n\n\n/// @title Multisignature wallet with daily limit - Allows an owner to withdraw a daily limit without multisig.\n/// @author Stefan George - <stefan.george@consensys.net>\ncontract MultiSigWalletWithDailyLimit is MultiSigWallet {\n\n    /*\n     *  Events\n     */\n    event DailyLimitChange(uint dailyLimit);\n\n    /*\n     *  Storage\n     */\n    uint public dailyLimit;\n    uint public lastDay;\n    uint public spentToday;\n\n    /*\n     * Public functions\n     */\n    /// @dev Contract constructor sets initial owners, required number of confirmations and daily withdraw limit.\n    /// @param _owners List of initial owners.\n    /// @param _required Number of required confirmations.\n    /// @param _dailyLimit Amount in wei, which can be withdrawn without confirmations on a daily basis.\n    function MultiSigWalletWithDailyLimit(address[] _owners, uint _required, uint _dailyLimit)\n        public\n        MultiSigWallet(_owners, _required)\n    {\n        dailyLimit = _dailyLimit;\n    }\n\n    /// @dev Allows to change the daily limit. Transaction has to be sent by wallet.\n    /// @param _dailyLimit Amount in wei.\n    function changeDailyLimit(uint _dailyLimit)\n        public\n        onlyWallet\n    {\n        dailyLimit = _dailyLimit;\n        DailyLimitChange(_dailyLimit);\n    }\n\n    /// @dev Allows anyone to execute a confirmed transaction or ether withdraws until daily limit is reached.\n    /// @param transactionId Transaction ID.\n    function executeTransaction(uint transactionId)\n        public\n        ownerExists(msg.sender)\n        confirmed(transactionId, msg.sender)\n        notExecuted(transactionId)\n    {\n        Transaction storage txn = transactions[transactionId];\n        bool _confirmed = isConfirmed(transactionId);\n        if (_confirmed || txn.data.length == 0 && isUnderLimit(txn.value)) {\n            txn.executed = true;\n            if (!_confirmed)\n                spentToday += txn.value;\n            if (txn.destination.call.value(txn.value)(txn.data))\n                Execution(transactionId);\n            else {\n                ExecutionFailure(transactionId);\n                txn.executed = false;\n                if (!_confirmed)\n                    spentToday -= txn.value;\n            }\n        }\n    }\n\n    /*\n     * Internal functions\n     */\n    /// @dev Returns if amount is within daily limit and resets spentToday after one day.\n    /// @param amount Amount to withdraw.\n    /// @return Returns if amount is under daily limit.\n    function isUnderLimit(uint amount)\n        internal\n        returns (bool)\n    {\n        if (now > lastDay + 24 hours) {\n            lastDay = now;\n            spentToday = 0;\n        }\n        if (spentToday + amount > dailyLimit || spentToday + amount < spentToday)\n            return false;\n        return true;\n    }\n\n    /*\n     * Web3 call functions\n     */\n    /// @dev Returns maximum withdraw amount.\n    /// @return Returns amount.\n    function calcMaxWithdraw()\n        public\n        constant\n        returns (uint)\n    {\n        if (now > lastDay + 24 hours)\n            return dailyLimit;\n        if (dailyLimit < spentToday)\n            return 0;\n        return dailyLimit - spentToday;\n    }\n}\n",
  "sourcePath": "/Users/roderik/Development/dtx-crowdsale-contracts/contracts/external/MultiSigWalletWithDailyLimit.sol",
  "compiler": {
    "name": "solc",
    "version": "0.4.20+commit.3155dd80.Emscripten.clang"
  },
  "schemaVersion": "2.0.0",
  "updatedAt": "2018-03-10T18:20:29.591Z"
}