{
  "contractName": "TokenSale",
  "abi": [
    {
      "constant": true,
      "inputs": [],
      "name": "lockedTokens",
      "outputs": [
        {
          "name": "",
          "type": "uint256"
        }
      ],
      "payable": false,
      "stateMutability": "view",
      "type": "function"
    },
    {
      "constant": true,
      "inputs": [],
      "name": "TOKENS_PER_ETHER_EARLYSALE",
      "outputs": [
        {
          "name": "",
          "type": "uint256"
        }
      ],
      "payable": false,
      "stateMutability": "view",
      "type": "function"
    },
    {
      "constant": true,
      "inputs": [],
      "name": "endPresaleTime",
      "outputs": [
        {
          "name": "",
          "type": "uint256"
        }
      ],
      "payable": false,
      "stateMutability": "view",
      "type": "function"
    },
    {
      "constant": true,
      "inputs": [],
      "name": "totalVested",
      "outputs": [
        {
          "name": "",
          "type": "uint256"
        }
      ],
      "payable": false,
      "stateMutability": "view",
      "type": "function"
    },
    {
      "constant": true,
      "inputs": [],
      "name": "endTime",
      "outputs": [
        {
          "name": "",
          "type": "uint256"
        }
      ],
      "payable": false,
      "stateMutability": "view",
      "type": "function"
    },
    {
      "constant": true,
      "inputs": [],
      "name": "HARD_CAP",
      "outputs": [
        {
          "name": "",
          "type": "uint256"
        }
      ],
      "payable": false,
      "stateMutability": "view",
      "type": "function"
    },
    {
      "constant": false,
      "inputs": [
        {
          "name": "_newController",
          "type": "address"
        }
      ],
      "name": "changeController",
      "outputs": [],
      "payable": false,
      "stateMutability": "nonpayable",
      "type": "function"
    },
    {
      "constant": true,
      "inputs": [],
      "name": "vaultAddress",
      "outputs": [
        {
          "name": "",
          "type": "address"
        }
      ],
      "payable": false,
      "stateMutability": "view",
      "type": "function"
    },
    {
      "constant": true,
      "inputs": [],
      "name": "TOKENS_PER_ETHER_PRESALE",
      "outputs": [
        {
          "name": "",
          "type": "uint256"
        }
      ],
      "payable": false,
      "stateMutability": "view",
      "type": "function"
    },
    {
      "constant": true,
      "inputs": [],
      "name": "tokenContract",
      "outputs": [
        {
          "name": "",
          "type": "address"
        }
      ],
      "payable": false,
      "stateMutability": "view",
      "type": "function"
    },
    {
      "constant": true,
      "inputs": [],
      "name": "paused",
      "outputs": [
        {
          "name": "",
          "type": "bool"
        }
      ],
      "payable": false,
      "stateMutability": "view",
      "type": "function"
    },
    {
      "constant": true,
      "inputs": [],
      "name": "totalIssuedEarlySale",
      "outputs": [
        {
          "name": "",
          "type": "uint256"
        }
      ],
      "payable": false,
      "stateMutability": "view",
      "type": "function"
    },
    {
      "constant": true,
      "inputs": [],
      "name": "TOKENS_PER_ETHER",
      "outputs": [
        {
          "name": "",
          "type": "uint256"
        }
      ],
      "payable": false,
      "stateMutability": "view",
      "type": "function"
    },
    {
      "constant": true,
      "inputs": [],
      "name": "startTime",
      "outputs": [
        {
          "name": "",
          "type": "uint256"
        }
      ],
      "payable": false,
      "stateMutability": "view",
      "type": "function"
    },
    {
      "constant": true,
      "inputs": [],
      "name": "transferable",
      "outputs": [
        {
          "name": "",
          "type": "bool"
        }
      ],
      "payable": false,
      "stateMutability": "view",
      "type": "function"
    },
    {
      "constant": true,
      "inputs": [],
      "name": "finalized",
      "outputs": [
        {
          "name": "",
          "type": "bool"
        }
      ],
      "payable": false,
      "stateMutability": "view",
      "type": "function"
    },
    {
      "constant": true,
      "inputs": [],
      "name": "startPresaleTime",
      "outputs": [
        {
          "name": "",
          "type": "uint256"
        }
      ],
      "payable": false,
      "stateMutability": "view",
      "type": "function"
    },
    {
      "constant": true,
      "inputs": [],
      "name": "TOKENS_PER_ETHER_DAY_ONE",
      "outputs": [
        {
          "name": "",
          "type": "uint256"
        }
      ],
      "payable": false,
      "stateMutability": "view",
      "type": "function"
    },
    {
      "constant": true,
      "inputs": [],
      "name": "MAX_TOKENS",
      "outputs": [
        {
          "name": "",
          "type": "uint256"
        }
      ],
      "payable": false,
      "stateMutability": "view",
      "type": "function"
    },
    {
      "constant": true,
      "inputs": [],
      "name": "totalIssued",
      "outputs": [
        {
          "name": "",
          "type": "uint256"
        }
      ],
      "payable": false,
      "stateMutability": "view",
      "type": "function"
    },
    {
      "constant": true,
      "inputs": [],
      "name": "controller",
      "outputs": [
        {
          "name": "",
          "type": "address"
        }
      ],
      "payable": false,
      "stateMutability": "view",
      "type": "function"
    },
    {
      "constant": true,
      "inputs": [],
      "name": "endDayOneTime",
      "outputs": [
        {
          "name": "",
          "type": "uint256"
        }
      ],
      "payable": false,
      "stateMutability": "view",
      "type": "function"
    },
    {
      "constant": true,
      "inputs": [],
      "name": "startDayOneTime",
      "outputs": [
        {
          "name": "",
          "type": "uint256"
        }
      ],
      "payable": false,
      "stateMutability": "view",
      "type": "function"
    },
    {
      "inputs": [
        {
          "name": "_startPresaleTime",
          "type": "uint256"
        },
        {
          "name": "_endPresaleTime",
          "type": "uint256"
        },
        {
          "name": "_startDayOneTime",
          "type": "uint256"
        },
        {
          "name": "_endDayOneTime",
          "type": "uint256"
        },
        {
          "name": "_startTime",
          "type": "uint256"
        },
        {
          "name": "_endTime",
          "type": "uint256"
        },
        {
          "name": "_vaultAddress",
          "type": "address"
        },
        {
          "name": "_tokenAddress",
          "type": "address"
        }
      ],
      "payable": false,
      "stateMutability": "nonpayable",
      "type": "constructor"
    },
    {
      "payable": true,
      "stateMutability": "payable",
      "type": "fallback"
    },
    {
      "constant": false,
      "inputs": [
        {
          "name": "_owner",
          "type": "address"
        }
      ],
      "name": "proxyPayment",
      "outputs": [
        {
          "name": "success",
          "type": "bool"
        }
      ],
      "payable": true,
      "stateMutability": "payable",
      "type": "function"
    },
    {
      "constant": false,
      "inputs": [
        {
          "name": "_from",
          "type": "address"
        },
        {
          "name": "",
          "type": "address"
        },
        {
          "name": "",
          "type": "uint256"
        }
      ],
      "name": "onTransfer",
      "outputs": [
        {
          "name": "success",
          "type": "bool"
        }
      ],
      "payable": false,
      "stateMutability": "nonpayable",
      "type": "function"
    },
    {
      "constant": false,
      "inputs": [
        {
          "name": "_owner",
          "type": "address"
        },
        {
          "name": "",
          "type": "address"
        },
        {
          "name": "",
          "type": "uint256"
        }
      ],
      "name": "onApprove",
      "outputs": [
        {
          "name": "success",
          "type": "bool"
        }
      ],
      "payable": false,
      "stateMutability": "nonpayable",
      "type": "function"
    },
    {
      "constant": false,
      "inputs": [],
      "name": "makeTransferable",
      "outputs": [],
      "payable": false,
      "stateMutability": "nonpayable",
      "type": "function"
    },
    {
      "constant": false,
      "inputs": [
        {
          "name": "_startPresaleTime",
          "type": "uint256"
        },
        {
          "name": "_endPresaleTime",
          "type": "uint256"
        },
        {
          "name": "_startDayOneTime",
          "type": "uint256"
        },
        {
          "name": "_endDayOneTime",
          "type": "uint256"
        },
        {
          "name": "_startTime",
          "type": "uint256"
        },
        {
          "name": "_endTime",
          "type": "uint256"
        }
      ],
      "name": "updateDates",
      "outputs": [],
      "payable": false,
      "stateMutability": "nonpayable",
      "type": "function"
    },
    {
      "constant": false,
      "inputs": [
        {
          "name": "_recipients",
          "type": "address[]"
        },
        {
          "name": "_ethAmounts",
          "type": "uint256[]"
        }
      ],
      "name": "handleEarlySaleBuyers",
      "outputs": [],
      "payable": false,
      "stateMutability": "nonpayable",
      "type": "function"
    },
    {
      "constant": false,
      "inputs": [
        {
          "name": "_recipients",
          "type": "address[]"
        },
        {
          "name": "_free",
          "type": "uint256[]"
        },
        {
          "name": "_locked",
          "type": "uint256[]"
        },
        {
          "name": "_cliffs",
          "type": "uint256[]"
        }
      ],
      "name": "handleExternalBuyers",
      "outputs": [],
      "payable": false,
      "stateMutability": "nonpayable",
      "type": "function"
    },
    {
      "constant": false,
      "inputs": [
        {
          "name": "_newController",
          "type": "address"
        }
      ],
      "name": "changeTokenController",
      "outputs": [],
      "payable": false,
      "stateMutability": "nonpayable",
      "type": "function"
    },
    {
      "constant": false,
      "inputs": [],
      "name": "finalizeSale",
      "outputs": [],
      "payable": false,
      "stateMutability": "nonpayable",
      "type": "function"
    },
    {
      "constant": false,
      "inputs": [
        {
          "name": "_owner",
          "type": "address"
        }
      ],
      "name": "claimLockedTokens",
      "outputs": [],
      "payable": false,
      "stateMutability": "nonpayable",
      "type": "function"
    },
    {
      "constant": false,
      "inputs": [],
      "name": "pauseContribution",
      "outputs": [],
      "payable": false,
      "stateMutability": "nonpayable",
      "type": "function"
    },
    {
      "constant": false,
      "inputs": [],
      "name": "resumeContribution",
      "outputs": [],
      "payable": false,
      "stateMutability": "nonpayable",
      "type": "function"
    }
  ],
  "bytecode": "0x606060405234156200001057600080fd5b6040516101008062001584833981016040528080519190602001805191906020018051919060200180519190602001805191906020018051919060200180519190602001805160008054600160a060020a03191633600160a060020a03161790559150504288116200008157600080fd5b4287116200008e57600080fd5b4286116200009b57600080fd5b428511620000a857600080fd5b428411620000b557600080fd5b428311620000c257600080fd5b87871015620000d057600080fd5b85851015620000de57600080fd5b83831015620000ec57600080fd5b84841015620000fa57600080fd5b868610156200010857600080fd5b600188905560028790556003869055600485905560058490556006839055600160a060020a03821615156200013c57600080fd5b600c8054600160a060020a031916600160a060020a0384811691909117909155811615156200016a57600080fd5b600b8054600160a060020a031916600160a060020a038316179055620001c6601e620001b16aba1d9a70c21cda810000006064640100000000620001ea8102620012f41704565b906401000000006200129d6200020782021704565b6007555050600c805460a060020a62ffffff0219169055506200023d945050505050565b6000808284811515620001f957fe5b0490508091505b5092915050565b6000808315156200021c576000915062000200565b508282028284828115156200022d57fe5b04146200023657fe5b9392505050565b611337806200024d6000396000f30060606040526004361061019d5763ffffffff60e060020a600035041663064292a881146101d15780630eb34740146101f85780630f98c91a1461021d5780631264299a14610230578063199cbc54146102435780631adadda8146102565780633197cbb6146102755780633a03171c146102885780633cebb8231461029b578063430bf08a146102ba5780634a393149146102e95780634b8adcf71461032557806350d5914a1461033857806355a373d61461034b57806358a687ec1461035e5780635c975abb1461037157806363036f8614610384578063696fd68c146103975780636b4a6ded146103aa57806378e97925146103bd5780637a38012e146103d05780638a426b1b1461045f57806392ff0d311461056e578063b3f05b9714610581578063b681f9f614610594578063c74b1e01146105a7578063d6c8976b146105ba578063da682aeb146102e9578063ee4aa327146105d9578063f47c84c5146105ec578063f48c3054146105ff578063f5be319314610613578063f77c479114610626578063f942be1c14610639578063fa848fb01461064c575b600c5474010000000000000000000000000000000000000000900460ff16156101c557600080fd5b6101ce3361065f565b50005b34156101dc57600080fd5b6101f660043560243560443560643560843560a4356108e7565b005b341561020357600080fd5b61020b61091f565b60405190815260200160405180910390f35b341561022857600080fd5b61020b610925565b341561023b57600080fd5b61020b61092b565b341561024e57600080fd5b61020b610931565b341561026157600080fd5b6101f6600160a060020a0360043516610937565b341561028057600080fd5b61020b610a46565b341561029357600080fd5b61020b610a4c565b34156102a657600080fd5b6101f6600160a060020a0360043516610a5b565b34156102c557600080fd5b6102cd610aa5565b604051600160a060020a03909116815260200160405180910390f35b34156102f457600080fd5b610311600160a060020a0360043581169060243516604435610ab4565b604051901515815260200160405180910390f35b341561033057600080fd5b6101f6610b18565b341561034357600080fd5b61020b610b6a565b341561035657600080fd5b6102cd610b70565b341561036957600080fd5b6101f6610b7f565b341561037c57600080fd5b610311610d9c565b341561038f57600080fd5b61020b610dbd565b34156103a257600080fd5b6101f6610dc3565b34156103b557600080fd5b61020b610e19565b34156103c857600080fd5b61020b610e1f565b34156103db57600080fd5b6101f6600460248135818101908301358060208181020160405190810160405280939291908181526020018383602002808284378201915050505050509190803590602001908201803590602001908080602002602001604051908101604052809392919081815260200183836020028082843750949650610e2595505050505050565b341561046a57600080fd5b6101f66004602481358181019083013580602081810201604051908101604052809392919081815260200183836020028082843782019150505050505091908035906020019082018035906020019080806020026020016040519081016040528093929190818152602001838360200280828437820191505050505050919080359060200190820180359060200190808060200260200160405190810160405280939291908181526020018383602002808284378201915050505050509190803590602001908201803590602001908080602002602001604051908101604052809392919081815260200183836020028082843750949650610f4795505050505050565b341561057957600080fd5b610311611141565b341561058c57600080fd5b610311611164565b341561059f57600080fd5b6101f6611174565b34156105b257600080fd5b61020b6111af565b34156105c557600080fd5b6101f6600160a060020a03600435166111b5565b34156105e457600080fd5b61020b61122d565b34156105f757600080fd5b61020b611233565b610311600160a060020a0360043516611242565b341561061e57600080fd5b61020b61127c565b341561063157600080fd5b6102cd611282565b341561064457600080fd5b61020b611291565b341561065757600080fd5b61020b611297565b600080808080803481901161067357600080fd5b600b54600160a060020a03308116911663f77c47916040518163ffffffff1660e060020a028152600401602060405180830381600087803b15156106b657600080fd5b5af115156106c357600080fd5b50505060405180519050600160a060020a03161415156106e257600080fd5b42600154111580156106f657504260025410155b9450426003541115801561070c57504260045410155b9350426005541115801561072257504260065410155b9250848061072d5750835b806107355750825b151561074057600080fd5b841561075b57678ac7230489e8000034101561075b57600080fd5b610fa09150841561076c5761177091505b83156107785761113091505b610788823463ffffffff61129d16565b90506a5955e3bb3e743fec0000006107ab826008546112d390919063ffffffff16565b11156107b657600080fd5b6aba1d9a70c21cda8100000061080d6108006107f16107e2600a546008546112d390919063ffffffff16565b6009549063ffffffff6112d316565b6007549063ffffffff6112d316565b839063ffffffff6112d316565b111561081857600080fd5b60085461082b908263ffffffff6112d316565b600855600c54600160a060020a03163480156108fc0290604051600060405180830381858888f19350505050151561086257600080fd5b600b54600160a060020a031663827f32c0888360405160e060020a63ffffffff8516028152600160a060020a0390921660048301526024820152604401602060405180830381600087803b15156108b857600080fd5b5af115156108c557600080fd5b5050506040518051905015156108da57600080fd5b5060019695505050505050565b60005433600160a060020a0390811691161461090257600080fd5b600195909555600293909355600391909155600455600555600655565b60075481565b61190081565b60025481565b60095481565b600160a060020a0381166000908152600d602052604081206001015481901180156109785750600160a060020a0382166000908152600d6020526040812054115b151561098357600080fd5b600160a060020a0382166000908152600d60205260409020600101544210156109ab57600080fd5b50600160a060020a038082166000908152600d60205260408082208054929055600b549192919091169063a9059cbb90849084905160e060020a63ffffffff8516028152600160a060020a0390921660048301526024820152604401602060405180830381600087803b1515610a2057600080fd5b5af11515610a2d57600080fd5b505050604051805190501515610a4257600080fd5b5050565b60065481565b6a5955e3bb3e743fec00000081565b60005433600160a060020a03908116911614610a7657600080fd5b6000805473ffffffffffffffffffffffffffffffffffffffff1916600160a060020a0392909216919091179055565b600c54600160a060020a031681565b60008054600160a060020a0385811691161480610ae2575030600160a060020a031684600160a060020a0316145b15610aef57506001610b11565b50600c54760100000000000000000000000000000000000000000000900460ff165b9392505050565b60005433600160a060020a03908116911614610b3357600080fd5b600c805474ff0000000000000000000000000000000000000000191674010000000000000000000000000000000000000000179055565b61177081565b600b54600160a060020a031681565b6000805433600160a060020a03908116911614610b9b57600080fd5b600654421180610bb857506a5955e3bb3e743fec00000060085410155b1515610bc357600080fd5b600c5460a860020a900460ff1615610bda57600080fd5b60408051908101604090815260075482526305a39a804201602080840191909152600c54600160a060020a03166000908152600d909152208151815560208201518160010155905050610c61600954610c55600a54610c55600854610c556007546aba1d9a70c21cda810000006112e290919063ffffffff16565b9063ffffffff6112e216565b600b54600c54919250600160a060020a039081169163827f32c091168360405160e060020a63ffffffff8516028152600160a060020a0390921660048301526024820152604401602060405180830381600087803b1515610cc157600080fd5b5af11515610cce57600080fd5b505050604051805190501515610ce357600080fd5b600b54600954600754600160a060020a039092169163827f32c0913091610d0f9163ffffffff6112d316565b60405160e060020a63ffffffff8516028152600160a060020a0390921660048301526024820152604401602060405180830381600087803b1515610d5257600080fd5b5af11515610d5f57600080fd5b505050604051805190501515610d7457600080fd5b50600c805475ff000000000000000000000000000000000000000000191660a860020a179055565b600c5474010000000000000000000000000000000000000000900460ff1681565b600a5481565b60005433600160a060020a03908116911614610dde57600080fd5b600c805476ff000000000000000000000000000000000000000000001916760100000000000000000000000000000000000000000000179055565b610fa081565b60055481565b60008054819033600160a060020a03908116911614610e4357600080fd5b600c5460a860020a900460ff1615610e5a57600080fd5b600091505b8351821015610f4157610e90838381518110610e7757fe5b906020019060200201516119009063ffffffff61129d16565b600a54909150610ea6908263ffffffff6112d316565b600a55600b54600160a060020a031663827f32c0858481518110610ec657fe5b906020019060200201518360405160e060020a63ffffffff8516028152600160a060020a0390921660048301526024820152604401602060405180830381600087803b1515610f1457600080fd5b5af11515610f2157600080fd5b505050604051805190501515610f3657600080fd5b600190910190610e5f565b50505050565b6000805433600160a060020a03908116911614610f6357600080fd5b600c5460a860020a900460ff1615610f7a57600080fd5b5060005b845181101561113a57610faf848281518110610f9657fe5b906020019060200201516008549063ffffffff6112d316565b600855600b54600160a060020a031663827f32c0868381518110610fcf57fe5b90602001906020020151868481518110610fe557fe5b9060200190602002015160405160e060020a63ffffffff8516028152600160a060020a0390921660048301526024820152604401602060405180830381600087803b151561103257600080fd5b5af1151561103f57600080fd5b50505060405180519050151561105457600080fd5b604080519081016040528084838151811061106b57fe5b90602001906020020151815260200183838151811061108657fe5b906020019060200201519052600d60008784815181106110a257fe5b90602001906020020151600160a060020a031681526020810191909152604001600020815181556020820151600190910155506110fd8382815181106110e457fe5b906020019060200201516009549063ffffffff6112d316565b506aba1d9a70c21cda810000006111276107f16107e2600a546008546112d390919063ffffffff16565b111561113257600080fd5b600101610f7e565b5050505050565b600c54760100000000000000000000000000000000000000000000900460ff1681565b600c5460a860020a900460ff1681565b60005433600160a060020a0390811691161461118f57600080fd5b600c805474ff000000000000000000000000000000000000000019169055565b60015481565b60005433600160a060020a039081169116146111d057600080fd5b600b54600160a060020a0316633cebb8238260405160e060020a63ffffffff8416028152600160a060020a039091166004820152602401600060405180830381600087803b151561122057600080fd5b5af11515610f4157600080fd5b61113081565b6aba1d9a70c21cda8100000081565b600c5460009074010000000000000000000000000000000000000000900460ff161561126d57600080fd5b6112768261065f565b92915050565b60085481565b600054600160a060020a031681565b60045481565b60035481565b6000808315156112b057600091506112cc565b508282028284828115156112c057fe5b04146112c857fe5b8091505b5092915050565b6000828201838110156112c857fe5b6000828211156112ee57fe5b50900390565b600080828481151561130257fe5b049493505050505600a165627a7a7230582064fa4b73c2553ef529167e99e04db78acffdbf9f4d3b35eb17a3a573b93500a10029",
  "source": "pragma solidity ^0.4.21;\n\nimport \"./DTXToken.sol\";\nimport \"./external/SafeMath.sol\";\nimport \"./external/Controlled.sol\";\nimport \"./external/ERC20Token.sol\";\n\n\ncontract TokenSale is TokenController, Controlled {\n\n  using SafeMath for uint256;\n\n  // In UNIX time format - http://www.unixtimestamp.com/\n  uint256 public startPresaleTime;\n  uint256 public endPresaleTime;\n  uint256 public startDayOneTime;\n  uint256 public endDayOneTime;\n  uint256 public startTime;\n  uint256 public endTime;\n\n  // the purchase rates\n  uint256 constant public TOKENS_PER_ETHER_EARLYSALE = 6400;\n  uint256 constant public TOKENS_PER_ETHER_PRESALE = 6000;\n  uint256 constant public TOKENS_PER_ETHER_DAY_ONE = 4400;\n  uint256 constant public TOKENS_PER_ETHER = 4000;\n\n  // max amount of 225 million tokens, in their smallest denomination\n  uint256 constant public MAX_TOKENS = 225000000 * 10**18;\n\n  // hard cap of 108 million tokens, in their smallest denomination\n  uint256 constant public HARD_CAP = 108000000 * 10**18;\n\n  // tokens locked for 3 years\n  uint256 public lockedTokens;\n\n  // total amount of tokens issues\n  uint256 public totalIssued;\n\n  // total amount of tokens locked in vesting\n  uint256 public totalVested;\n\n  // total amount of tokens issues\n  uint256 public totalIssuedEarlySale;\n\n  // the tokencontract for the DataBrokerDAO\n  DTXToken public tokenContract;\n\n  // the funds end up in this address\n  address public vaultAddress;\n\n  // is the token sale paused\n  bool public paused;\n\n  // is the token sale finalized\n  bool public finalized;\n\n  // are the tokens transferable\n  bool public transferable;\n\n  // listing of addresses with allowances\n  mapping(address => Vesting) vestedAllowances;\n\n  struct Vesting {\n    uint256 amount;\n    uint256 cliff;\n  }\n\n  /// @dev the constructor\n  function TokenSale(\n    uint256 _startPresaleTime,\n    uint256 _endPresaleTime,\n    uint256 _startDayOneTime,\n    uint256 _endDayOneTime,\n    uint256 _startTime,\n    uint256 _endTime,\n    address _vaultAddress,\n    address _tokenAddress\n  ) public {\n    // are the dates in the future\n    require(_startPresaleTime > now);\n    require(_endPresaleTime > now);\n    require(_startDayOneTime > now);\n    require(_endDayOneTime > now);\n    require(_startTime > now);\n    require(_endTime > now);\n    // are the end dates after the start dates\n    require(_endPresaleTime >= _startPresaleTime);\n    require(_endDayOneTime >= _startDayOneTime);\n    require(_endTime >= _startTime);\n    // are the phases in the right order\n    require(_startTime >= _endDayOneTime);\n    require(_startDayOneTime >= _endPresaleTime);\n    // dates are correct, set them!\n    startPresaleTime = _startPresaleTime;\n    endPresaleTime = _endPresaleTime;\n    startDayOneTime = _startDayOneTime;\n    endDayOneTime = _endDayOneTime;\n    startTime = _startTime;\n    endTime = _endTime;\n    // make sure the the vault is there\n    require(_vaultAddress != 0x0);\n    vaultAddress = _vaultAddress;\n    // make sure the token is there\n    require(_tokenAddress != 0x0);\n    tokenContract = DTXToken(_tokenAddress);\n    // calculate the amount of tokens we need to lock up\n    lockedTokens = MAX_TOKENS.div(100).mul(30);\n    // set some stating flags\n    paused = false;\n    finalized = false;\n    transferable = false;\n  }\n\n  /// @dev The fallback function is called when ether is sent to the contract, it\n  /// simply calls `doPayment()` with the address that sent the ether as the\n  /// `_owner`. Payable is a required solidity modifier for functions to receive\n  /// ether, without this modifier functions will throw if ether is sent to them\n  function () public payable notPaused {\n    doPayment(msg.sender);\n  }\n\n  /// @notice `proxyPayment()` allows the caller to send ether to the TokenSale and\n  /// have the tokens created in an address of their choosing\n  function proxyPayment(address _owner) public payable notPaused returns(bool success) {\n    return doPayment(_owner);\n  }\n\n  /// @notice Notifies the controller about a transfer, for this TokenSale all\n  /// transfers are allowed by default and no extra notifications are needed\n  function onTransfer(address _from, address /*_to*/, uint /*_amount*/) public returns(bool success) {\n    if ( _from == controller || _from == address(this) ) {\n      return true;\n    }\n    return transferable;\n  }\n\n  /// @notice Notifies the controller about an approval, for this TokenSale all\n  /// approvals are allowed by default and no extra notifications are needed\n  function onApprove(address _owner, address /*_spender*/, uint /*_amount*/) public returns(bool success) {\n    if ( _owner == controller || _owner == address(this) ) {\n      return true;\n    }\n    return transferable;\n  }\n\n  /// @dev setter for the transferable flag\n  function makeTransferable() public onlyController {\n    transferable = true;\n  }\n\n  /// @dev update method for all the dates\n  function updateDates(\n    uint256 _startPresaleTime,\n    uint256 _endPresaleTime,\n    uint256 _startDayOneTime,\n    uint256 _endDayOneTime,\n    uint256 _startTime,\n    uint256 _endTime) public onlyController {\n    startPresaleTime = _startPresaleTime;\n    endPresaleTime = _endPresaleTime;\n    startDayOneTime = _startDayOneTime;\n    endDayOneTime = _endDayOneTime;\n    startTime = _startTime;\n    endTime = _endTime;\n  }\n\n  /// @dev utility function to allow the owner to handle the early sale purchases\n  function handleEarlySaleBuyers(address[] _recipients, uint256[] _ethAmounts) public onlyController {\n    // only run if the sale is not finalised yet\n    require(!finalized);\n    // loop over all recipients, use smallish lists in regards to gas costs (TBD)\n    for (uint256 i = 0; i < _recipients.length; i++) {\n      // use the fixed conversion rate from ETH to DTX\n      uint256 tokensToIssue = TOKENS_PER_ETHER_EARLYSALE.mul(_ethAmounts[i]);\n      // keep a separate counter to have a complete records on DTX issued\n      totalIssuedEarlySale = totalIssuedEarlySale.add(tokensToIssue);\n      // Creates an equal amount of tokens as ether sent. The new tokens are created in the address of the recipient\n      require(tokenContract.generateTokens(_recipients[i], tokensToIssue));\n    }\n  }\n\n  /// @dev utility function to allow the owner to handle private and bitcoin buyers\n  function handleExternalBuyers(\n    address[] _recipients,\n    uint256[] _free,\n    uint256[] _locked,\n    uint256[] _cliffs\n  ) public onlyController {\n    // only run if the sale is not finalised yet\n    require(!finalized);\n    // loop over all recipients, use smallish lists in regards to gas costs (TBD)\n    for (uint256 i = 0; i < _recipients.length; i++) {\n      // these tokens count for the hard cap limit, but they are guaranteed to succeed so no hardcap check.\n      totalIssued = totalIssued.add(_free[i]);\n      // Creates an equal amount of tokens as ether sent. The new tokens are created in the address of the recipient\n      require(tokenContract.generateTokens(_recipients[i], _free[i]));\n      // locks the rest until the cliff is reached\n      vestedAllowances[_recipients[i]] = Vesting(_locked[i], _cliffs[i]);\n      totalVested.add(_locked[i]);\n      require(lockedTokens.add(totalVested.add(totalIssued.add(totalIssuedEarlySale))) <= MAX_TOKENS);\n    }\n  }\n\n  /// @dev `doPayment()` is an internal function that sends the ether that this\n  ///  contract receives to the `vault` and creates tokens in the address of the\n  ///  `_owner` assuming the TokenSale is still accepting funds\n  function doPayment(address _owner) internal returns(bool success) {\n    // there is no reason to check anything if there is no ETH being sent\n    require(msg.value > 0);\n\n    // if this contract is not the controller, we can fail immediately\n    require(tokenContract.controller() == address(this));\n\n    // check in what period we are\n    bool isPresale = startPresaleTime <= now && endPresaleTime >= now;\n    bool isDayOne = startDayOneTime <= now && endDayOneTime >= now;\n    bool isSale = startTime <= now && endTime >= now;\n\n    // check if we are in one of the sale periods\n    require(isPresale || isDayOne || isSale);\n\n    // check the minimum for the presale phase\n    if (isPresale) {\n      require(msg.value >= 10 ether);\n    }\n\n    // figure out the rate for this period.\n    uint256 tokensPerEther = TOKENS_PER_ETHER;\n    if (isPresale) {\n      tokensPerEther = TOKENS_PER_ETHER_PRESALE;\n    }\n    if (isDayOne) {\n      tokensPerEther = TOKENS_PER_ETHER_DAY_ONE;\n    }\n\n    // calculate the tokens to issue (since the decimals match, we just need to multiply the wei amounts)\n    uint256 tokensToIssue = tokensPerEther.mul(msg.value);\n\n    // have we reached the max contribution\n    require(totalIssued.add(tokensToIssue) <= HARD_CAP);\n    require(tokensToIssue.add(lockedTokens.add(totalVested.add(totalIssued.add(totalIssuedEarlySale)))) <= MAX_TOKENS);\n\n    // Track how much the TokenSale has collected\n    totalIssued = totalIssued.add(tokensToIssue);\n\n    // Send the ether to the vault\n    vaultAddress.transfer(msg.value);\n\n    // Creates an equal amount of tokens as ether sent. The new tokens are created in the `_owner` address\n    require(tokenContract.generateTokens(_owner, tokensToIssue));\n\n    return true;\n  }\n\n  /// @dev Allow the owner of TokenSale to change the controller of the token\n  function changeTokenController(address _newController) public onlyController {\n    tokenContract.changeController(_newController);\n  }\n\n  /// @notice `finalizeSale()` ends the TokenSale. It will generate the platform and team tokens\n  ///  and set the controller to the referral fee contract.\n  /// @dev `finalizeSale()` can only be called after the end of the funding period or if the maximum amount is raised.\n  function finalizeSale() public onlyController {\n    // either the end time is passed, or the hard cap is reached\n    require(now > endTime || totalIssued >= HARD_CAP);\n\n    // we should only do this function once since it generates tokens\n    require(!finalized);\n\n    vestedAllowances[vaultAddress] = Vesting(lockedTokens, now + 3 years);\n\n    // calculate how many tokens are left if we subtract all the issued amounts\n    uint256 leftoverTokens = MAX_TOKENS.sub(lockedTokens).sub(totalIssued).sub(totalIssuedEarlySale).sub(totalVested);\n\n    // generate that left over amount in the vault address\n    require(tokenContract.generateTokens(vaultAddress, leftoverTokens));\n    require(tokenContract.generateTokens(address(this), lockedTokens.add(totalVested)));\n\n    finalized = true;\n  }\n\n  function claimLockedTokens(address _owner) public {\n    require(vestedAllowances[_owner].cliff > 0 && vestedAllowances[_owner].amount > 0);\n    require(now >= vestedAllowances[_owner].cliff);\n    uint256 amount = vestedAllowances[_owner].amount;\n    vestedAllowances[_owner].amount = 0;\n    require(tokenContract.transfer(_owner, amount));\n  }\n\n  /// @notice Pauses the contribution if there is any issue\n  function pauseContribution() public onlyController {\n    paused = true;\n  }\n\n  /// @notice Resumes the contribution\n  function resumeContribution() public onlyController {\n    paused = false;\n  }\n\n  modifier notPaused() {\n    require(!paused);\n    _;\n  }\n}\n",
  "sourcePath": "/Users/roderik/Development/dtx-crowdsale-contracts/contracts/TokenSale.sol",
  "compiler": {
    "name": "solc",
    "version": "0.4.21+commit.dfe3193c.Emscripten.clang"
  },
  "schemaVersion": "2.0.0",
  "updatedAt": "2018-04-26T14:47:09.826Z"
}